{
  "_format": "hh-sol-artifact-1",
  "contractName": "ERC721Merkle",
  "sourceName": "contracts/ERC721Markle.sol",
  "abi": [
    {
      "inputs": [
        {
          "internalType": "string",
          "name": "name",
          "type": "string"
        },
        {
          "internalType": "string",
          "name": "symbol",
          "type": "string"
        },
        {
          "internalType": "bytes32",
          "name": "merkleRoot",
          "type": "bytes32"
        }
      ],
      "stateMutability": "nonpayable",
      "type": "constructor"
    },
    {
      "anonymous": false,
      "inputs": [
        {
          "indexed": true,
          "internalType": "address",
          "name": "owner",
          "type": "address"
        },
        {
          "indexed": true,
          "internalType": "address",
          "name": "approved",
          "type": "address"
        },
        {
          "indexed": true,
          "internalType": "uint256",
          "name": "tokenId",
          "type": "uint256"
        }
      ],
      "name": "Approval",
      "type": "event"
    },
    {
      "anonymous": false,
      "inputs": [
        {
          "indexed": true,
          "internalType": "address",
          "name": "owner",
          "type": "address"
        },
        {
          "indexed": true,
          "internalType": "address",
          "name": "operator",
          "type": "address"
        },
        {
          "indexed": false,
          "internalType": "bool",
          "name": "approved",
          "type": "bool"
        }
      ],
      "name": "ApprovalForAll",
      "type": "event"
    },
    {
      "anonymous": false,
      "inputs": [
        {
          "indexed": true,
          "internalType": "address",
          "name": "previousOwner",
          "type": "address"
        },
        {
          "indexed": true,
          "internalType": "address",
          "name": "newOwner",
          "type": "address"
        }
      ],
      "name": "OwnershipTransferred",
      "type": "event"
    },
    {
      "anonymous": false,
      "inputs": [
        {
          "indexed": true,
          "internalType": "address",
          "name": "from",
          "type": "address"
        },
        {
          "indexed": true,
          "internalType": "address",
          "name": "to",
          "type": "address"
        },
        {
          "indexed": true,
          "internalType": "uint256",
          "name": "tokenId",
          "type": "uint256"
        }
      ],
      "name": "Transfer",
      "type": "event"
    },
    {
      "anonymous": false,
      "inputs": [
        {
          "indexed": false,
          "internalType": "string",
          "name": "oldStr",
          "type": "string"
        },
        {
          "indexed": false,
          "internalType": "string",
          "name": "newStr",
          "type": "string"
        }
      ],
      "name": "UpdatedMessages",
      "type": "event"
    },
    {
      "stateMutability": "payable",
      "type": "fallback"
    },
    {
      "inputs": [
        {
          "internalType": "address",
          "name": "to",
          "type": "address"
        },
        {
          "internalType": "uint256",
          "name": "tokenId",
          "type": "uint256"
        }
      ],
      "name": "approve",
      "outputs": [],
      "stateMutability": "nonpayable",
      "type": "function"
    },
    {
      "inputs": [
        {
          "internalType": "address",
          "name": "owner",
          "type": "address"
        }
      ],
      "name": "balanceOf",
      "outputs": [
        {
          "internalType": "uint256",
          "name": "",
          "type": "uint256"
        }
      ],
      "stateMutability": "view",
      "type": "function"
    },
    {
      "inputs": [
        {
          "internalType": "uint256",
          "name": "tokenId",
          "type": "uint256"
        }
      ],
      "name": "getApproved",
      "outputs": [
        {
          "internalType": "address",
          "name": "",
          "type": "address"
        }
      ],
      "stateMutability": "view",
      "type": "function"
    },
    {
      "inputs": [],
      "name": "getBalance",
      "outputs": [
        {
          "internalType": "uint256",
          "name": "",
          "type": "uint256"
        }
      ],
      "stateMutability": "view",
      "type": "function"
    },
    {
      "inputs": [],
      "name": "getOwner",
      "outputs": [
        {
          "internalType": "address",
          "name": "",
          "type": "address"
        }
      ],
      "stateMutability": "view",
      "type": "function"
    },
    {
      "inputs": [],
      "name": "getPrice",
      "outputs": [
        {
          "internalType": "uint256",
          "name": "",
          "type": "uint256"
        }
      ],
      "stateMutability": "view",
      "type": "function"
    },
    {
      "inputs": [],
      "name": "getQuestion",
      "outputs": [
        {
          "internalType": "string",
          "name": "",
          "type": "string"
        }
      ],
      "stateMutability": "view",
      "type": "function"
    },
    {
      "inputs": [
        {
          "internalType": "address",
          "name": "owner",
          "type": "address"
        },
        {
          "internalType": "address",
          "name": "operator",
          "type": "address"
        }
      ],
      "name": "isApprovedForAll",
      "outputs": [
        {
          "internalType": "bool",
          "name": "",
          "type": "bool"
        }
      ],
      "stateMutability": "view",
      "type": "function"
    },
    {
      "inputs": [
        {
          "internalType": "uint256",
          "name": "tokenId",
          "type": "uint256"
        }
      ],
      "name": "isTokenSale",
      "outputs": [
        {
          "internalType": "bool",
          "name": "",
          "type": "bool"
        }
      ],
      "stateMutability": "view",
      "type": "function"
    },
    {
      "inputs": [
        {
          "internalType": "address",
          "name": "to",
          "type": "address"
        },
        {
          "internalType": "bytes32[]",
          "name": "proof",
          "type": "bytes32[]"
        },
        {
          "internalType": "string",
          "name": "uri",
          "type": "string"
        },
        {
          "internalType": "uint256",
          "name": "tokenId",
          "type": "uint256"
        }
      ],
      "name": "mintNFT",
      "outputs": [],
      "stateMutability": "payable",
      "type": "function"
    },
    {
      "inputs": [],
      "name": "name",
      "outputs": [
        {
          "internalType": "string",
          "name": "",
          "type": "string"
        }
      ],
      "stateMutability": "view",
      "type": "function"
    },
    {
      "inputs": [],
      "name": "owner",
      "outputs": [
        {
          "internalType": "address",
          "name": "",
          "type": "address"
        }
      ],
      "stateMutability": "view",
      "type": "function"
    },
    {
      "inputs": [
        {
          "internalType": "uint256",
          "name": "tokenId",
          "type": "uint256"
        }
      ],
      "name": "ownerOf",
      "outputs": [
        {
          "internalType": "address",
          "name": "",
          "type": "address"
        }
      ],
      "stateMutability": "view",
      "type": "function"
    },
    {
      "inputs": [],
      "name": "renounceOwnership",
      "outputs": [],
      "stateMutability": "nonpayable",
      "type": "function"
    },
    {
      "inputs": [],
      "name": "root",
      "outputs": [
        {
          "internalType": "bytes32",
          "name": "",
          "type": "bytes32"
        }
      ],
      "stateMutability": "view",
      "type": "function"
    },
    {
      "inputs": [
        {
          "internalType": "address",
          "name": "from",
          "type": "address"
        },
        {
          "internalType": "address",
          "name": "to",
          "type": "address"
        },
        {
          "internalType": "uint256",
          "name": "tokenId",
          "type": "uint256"
        }
      ],
      "name": "safeTransferFrom",
      "outputs": [],
      "stateMutability": "nonpayable",
      "type": "function"
    },
    {
      "inputs": [
        {
          "internalType": "address",
          "name": "from",
          "type": "address"
        },
        {
          "internalType": "address",
          "name": "to",
          "type": "address"
        },
        {
          "internalType": "uint256",
          "name": "tokenId",
          "type": "uint256"
        },
        {
          "internalType": "bytes",
          "name": "_data",
          "type": "bytes"
        }
      ],
      "name": "safeTransferFrom",
      "outputs": [],
      "stateMutability": "nonpayable",
      "type": "function"
    },
    {
      "inputs": [
        {
          "internalType": "address",
          "name": "operator",
          "type": "address"
        },
        {
          "internalType": "bool",
          "name": "approved",
          "type": "bool"
        }
      ],
      "name": "setApprovalForAll",
      "outputs": [],
      "stateMutability": "nonpayable",
      "type": "function"
    },
    {
      "inputs": [
        {
          "internalType": "string",
          "name": "question",
          "type": "string"
        }
      ],
      "name": "setQuestion",
      "outputs": [],
      "stateMutability": "nonpayable",
      "type": "function"
    },
    {
      "inputs": [
        {
          "internalType": "uint256",
          "name": "tokenId",
          "type": "uint256"
        }
      ],
      "name": "setTokenSale",
      "outputs": [],
      "stateMutability": "nonpayable",
      "type": "function"
    },
    {
      "inputs": [
        {
          "internalType": "bytes32[]",
          "name": "proof",
          "type": "bytes32[]"
        }
      ],
      "name": "setVote",
      "outputs": [],
      "stateMutability": "nonpayable",
      "type": "function"
    },
    {
      "inputs": [
        {
          "internalType": "bytes4",
          "name": "interfaceId",
          "type": "bytes4"
        }
      ],
      "name": "supportsInterface",
      "outputs": [
        {
          "internalType": "bool",
          "name": "",
          "type": "bool"
        }
      ],
      "stateMutability": "view",
      "type": "function"
    },
    {
      "inputs": [],
      "name": "symbol",
      "outputs": [
        {
          "internalType": "string",
          "name": "",
          "type": "string"
        }
      ],
      "stateMutability": "view",
      "type": "function"
    },
    {
      "inputs": [
        {
          "internalType": "uint256",
          "name": "tokenId",
          "type": "uint256"
        }
      ],
      "name": "tokenURI",
      "outputs": [
        {
          "internalType": "string",
          "name": "",
          "type": "string"
        }
      ],
      "stateMutability": "view",
      "type": "function"
    },
    {
      "inputs": [
        {
          "internalType": "address",
          "name": "from",
          "type": "address"
        },
        {
          "internalType": "address",
          "name": "to",
          "type": "address"
        },
        {
          "internalType": "uint256",
          "name": "tokenId",
          "type": "uint256"
        }
      ],
      "name": "transferFrom",
      "outputs": [],
      "stateMutability": "nonpayable",
      "type": "function"
    },
    {
      "inputs": [
        {
          "internalType": "address",
          "name": "newOwner",
          "type": "address"
        }
      ],
      "name": "transferOwnership",
      "outputs": [],
      "stateMutability": "nonpayable",
      "type": "function"
    },
    {
      "inputs": [],
      "name": "withdraw",
      "outputs": [],
      "stateMutability": "nonpayable",
      "type": "function"
    }
  ],
  "bytecode": "0x60a06040526006600b553480156200001657600080fd5b506040516200426d3803806200426d83398181016040528101906200003c919062000374565b82826200005e620000526200016f60201b60201c565b6200017760201b60201c565b8160019080519060200190620000769291906200023b565b5080600290805190602001906200008f9291906200023b565b50505080608081815250506000600a8190555033600860006101000a81548173ffffffffffffffffffffffffffffffffffffffff021916908373ffffffffffffffffffffffffffffffffffffffff160217905550670de0b6b3a76400006009819055506040518060600160405280603281526020016200423b60329139600f9080519060200190620001239291906200023b565b506000600190505b600b5481101562000165576000600c60008381526020019081526020016000208190555080806200015c9062000511565b9150506200012b565b5050505062000617565b600033905090565b60008060009054906101000a900473ffffffffffffffffffffffffffffffffffffffff169050816000806101000a81548173ffffffffffffffffffffffffffffffffffffffff021916908373ffffffffffffffffffffffffffffffffffffffff1602179055508173ffffffffffffffffffffffffffffffffffffffff168173ffffffffffffffffffffffffffffffffffffffff167f8be0079c531659141344cd1fd0a4f28419497f9722a3daafe3b4186f6b6457e060405160405180910390a35050565b8280546200024990620004a5565b90600052602060002090601f0160209004810192826200026d5760008555620002b9565b82601f106200028857805160ff1916838001178555620002b9565b82800160010185558215620002b9579182015b82811115620002b85782518255916020019190600101906200029b565b5b509050620002c89190620002cc565b5090565b5b80821115620002e7576000816000905550600101620002cd565b5090565b600062000302620002fc8462000425565b620003fc565b9050828152602081018484840111156200031b57600080fd5b620003288482856200046f565b509392505050565b6000815190506200034181620005fd565b92915050565b600082601f8301126200035957600080fd5b81516200036b848260208601620002eb565b91505092915050565b6000806000606084860312156200038a57600080fd5b600084015167ffffffffffffffff811115620003a557600080fd5b620003b38682870162000347565b935050602084015167ffffffffffffffff811115620003d157600080fd5b620003df8682870162000347565b9250506040620003f28682870162000330565b9150509250925092565b6000620004086200041b565b9050620004168282620004db565b919050565b6000604051905090565b600067ffffffffffffffff821115620004435762000442620005bd565b5b6200044e82620005ec565b9050602081019050919050565b6000819050919050565b6000819050919050565b60005b838110156200048f57808201518184015260208101905062000472565b838111156200049f576000848401525b50505050565b60006002820490506001821680620004be57607f821691505b60208210811415620004d557620004d46200058e565b5b50919050565b620004e682620005ec565b810181811067ffffffffffffffff82111715620005085762000507620005bd565b5b80604052505050565b60006200051e8262000465565b91507fffffffffffffffffffffffffffffffffffffffffffffffffffffffffffffffff8214156200055457620005536200055f565b5b600182019050919050565b7f4e487b7100000000000000000000000000000000000000000000000000000000600052601160045260246000fd5b7f4e487b7100000000000000000000000000000000000000000000000000000000600052602260045260246000fd5b7f4e487b7100000000000000000000000000000000000000000000000000000000600052604160045260246000fd5b6000601f19601f8301169050919050565b62000608816200045b565b81146200061457600080fd5b50565b608051613c016200063a6000396000818161131c0152611e210152613c016000f3fe6080604052600436106101a05760003560e01c8063799e18c0116100ec578063b88d4fde1161008a578063e985e9c511610064578063e985e9c5146105b9578063ebf0c717146105f6578063eff38f9214610621578063f2fde38b1461064c576101a1565b8063b88d4fde1461052a578063c87b56dd14610553578063e483607e14610590576101a1565b806395d89b41116100c657806395d89b411461046e57806398d5fdca14610499578063a22cb465146104c4578063a53d36ef146104ed576101a1565b8063799e18c0146103ef578063893d20e8146104185780638da5cb5b14610443576101a1565b806323b872dd1161015957806342842e0e1161013357806342842e0e146103355780636352211e1461035e57806370a082311461039b578063715018a6146103d8576101a1565b806323b872dd146102d957806328668dfb146103025780633ccfd60b1461031e576101a1565b806301ffc9a7146101b757806306fdde03146101f4578063081812fc1461021f578063095ea7b31461025c5780630f7ffbf51461028557806312065fe0146102ae576101a1565b5b34600a546101af91906132a8565b600a81905550005b3480156101c357600080fd5b506101de60048036038101906101d9919061295d565b610675565b6040516101eb9190612e94565b60405180910390f35b34801561020057600080fd5b50610209610757565b6040516102169190612eca565b60405180910390f35b34801561022b57600080fd5b50610246600480360381019061024191906129f0565b6107e9565b6040516102539190612e2d565b60405180910390f35b34801561026857600080fd5b50610283600480360381019061027e91906128dc565b61086e565b005b34801561029157600080fd5b506102ac60048036038101906102a791906129f0565b610986565b005b3480156102ba57600080fd5b506102c36109a2565b6040516102d091906131c3565b60405180910390f35b3480156102e557600080fd5b5061030060048036038101906102fb919061273e565b6109ac565b005b61031c60048036038101906103179190612808565b610a0c565b005b34801561032a57600080fd5b50610333610b1b565b005b34801561034157600080fd5b5061035c6004803603810190610357919061273e565b610bef565b005b34801561036a57600080fd5b50610385600480360381019061038091906129f0565b610c0f565b6040516103929190612e2d565b60405180910390f35b3480156103a757600080fd5b506103c260048036038101906103bd91906126d9565b610cc1565b6040516103cf91906131c3565b60405180910390f35b3480156103e457600080fd5b506103ed610d79565b005b3480156103fb57600080fd5b50610416600480360381019061041191906129af565b610e01565b005b34801561042457600080fd5b5061042d610f60565b60405161043a9190612e2d565b60405180910390f35b34801561044f57600080fd5b50610458610f8a565b6040516104659190612e2d565b60405180910390f35b34801561047a57600080fd5b50610483610fb3565b6040516104909190612eca565b60405180910390f35b3480156104a557600080fd5b506104ae611045565b6040516104bb91906131c3565b60405180910390f35b3480156104d057600080fd5b506104eb60048036038101906104e691906128a0565b61104f565b005b3480156104f957600080fd5b50610514600480360381019061050f91906129f0565b611065565b6040516105219190612e94565b60405180910390f35b34801561053657600080fd5b50610551600480360381019061054c919061278d565b611084565b005b34801561055f57600080fd5b5061057a600480360381019061057591906129f0565b6110e6565b6040516105879190612eca565b60405180910390f35b34801561059c57600080fd5b506105b760048036038101906105b29190612918565b611238565b005b3480156105c557600080fd5b506105e060048036038101906105db9190612702565b611286565b6040516105ed9190612e94565b60405180910390f35b34801561060257600080fd5b5061060b61131a565b6040516106189190612eaf565b60405180910390f35b34801561062d57600080fd5b5061063661133e565b6040516106439190612eca565b60405180910390f35b34801561065857600080fd5b50610673600480360381019061066e91906126d9565b6113d0565b005b60007f80ac58cd000000000000000000000000000000000000000000000000000000007bffffffffffffffffffffffffffffffffffffffffffffffffffffffff1916827bffffffffffffffffffffffffffffffffffffffffffffffffffffffff1916148061074057507f5b5e139f000000000000000000000000000000000000000000000000000000007bffffffffffffffffffffffffffffffffffffffffffffffffffffffff1916827bffffffffffffffffffffffffffffffffffffffffffffffffffffffff1916145b80610750575061074f826114c8565b5b9050919050565b60606001805461076690613423565b80601f016020809104026020016040519081016040528092919081815260200182805461079290613423565b80156107df5780601f106107b4576101008083540402835291602001916107df565b820191906000526020600020905b8154815290600101906020018083116107c257829003601f168201915b5050505050905090565b60006107f482611532565b610833576040517f08c379a000000000000000000000000000000000000000000000000000000000815260040161082a90613123565b60405180910390fd5b6005600083815260200190815260200160002060009054906101000a900473ffffffffffffffffffffffffffffffffffffffff169050919050565b600061087982610c0f565b90508073ffffffffffffffffffffffffffffffffffffffff168373ffffffffffffffffffffffffffffffffffffffff1614156108ea576040517f08c379a00000000000000000000000000000000000000000000000000000000081526004016108e190613183565b60405180910390fd5b8073ffffffffffffffffffffffffffffffffffffffff1661090961159e565b73ffffffffffffffffffffffffffffffffffffffff16148061093857506109378161093261159e565b611286565b5b610977576040517f08c379a000000000000000000000000000000000000000000000000000000000815260040161096e90613043565b60405180910390fd5b61098183836115a6565b505050565b6001600c60008381526020019081526020016000208190555050565b6000600a54905090565b6109bd6109b761159e565b8261165f565b6109fc576040517f08c379a00000000000000000000000000000000000000000000000000000000081526004016109f3906131a3565b60405180910390fd5b610a0783838361173d565b505050565b610a1581611065565b610a54576040517f08c379a0000000000000000000000000000000000000000000000000000000008152600401610a4b90612f23565b60405180910390fd5b610a5f8585856119a4565b610a9e576040517f08c379a0000000000000000000000000000000000000000000000000000000008152600401610a9590612f83565b60405180910390fd5b600954341415610ae3576040517f08c379a0000000000000000000000000000000000000000000000000000000008152600401610ada90613103565b60405180910390fd5b610aec81610986565b610af68582611a02565b610b008183611a20565b34600a54610b0e91906132a8565b600a819055505050505050565b610b2361159e565b73ffffffffffffffffffffffffffffffffffffffff16610b41610f8a565b73ffffffffffffffffffffffffffffffffffffffff1614610b97576040517f08c379a0000000000000000000000000000000000000000000000000000000008152600401610b8e90613143565b60405180910390fd5b3373ffffffffffffffffffffffffffffffffffffffff166108fc610bb96109a2565b9081150290604051600060405180830381858888f19350505050158015610be4573d6000803e3d6000fd5b506000600a81905550565b610c0a83838360405180602001604052806000815250611084565b505050565b6000806003600084815260200190815260200160002060009054906101000a900473ffffffffffffffffffffffffffffffffffffffff169050600073ffffffffffffffffffffffffffffffffffffffff168173ffffffffffffffffffffffffffffffffffffffff161415610cb8576040517f08c379a0000000000000000000000000000000000000000000000000000000008152600401610caf90613083565b60405180910390fd5b80915050919050565b60008073ffffffffffffffffffffffffffffffffffffffff168273ffffffffffffffffffffffffffffffffffffffff161415610d32576040517f08c379a0000000000000000000000000000000000000000000000000000000008152600401610d2990613063565b60405180910390fd5b600460008373ffffffffffffffffffffffffffffffffffffffff1673ffffffffffffffffffffffffffffffffffffffff168152602001908152602001600020549050919050565b610d8161159e565b73ffffffffffffffffffffffffffffffffffffffff16610d9f610f8a565b73ffffffffffffffffffffffffffffffffffffffff1614610df5576040517f08c379a0000000000000000000000000000000000000000000000000000000008152600401610dec90613143565b60405180910390fd5b610dff6000611a94565b565b610e0961159e565b73ffffffffffffffffffffffffffffffffffffffff16610e27610f8a565b73ffffffffffffffffffffffffffffffffffffffff1614610e7d576040517f08c379a0000000000000000000000000000000000000000000000000000000008152600401610e7490613143565b60405180910390fd5b6000600f8054610e8c90613423565b80601f0160208091040260200160405190810160405280929190818152602001828054610eb890613423565b8015610f055780601f10610eda57610100808354040283529160200191610f05565b820191906000526020600020905b815481529060010190602001808311610ee857829003601f168201915b5050505050905081600f9080519060200190610f229291906124b3565b507ff91d506d7335e83e4869a58cd98e0557cdcef6f507ba1e52725521305626d05b8183604051610f54929190612eec565b60405180910390a15050565b6000600860009054906101000a900473ffffffffffffffffffffffffffffffffffffffff16905090565b60008060009054906101000a900473ffffffffffffffffffffffffffffffffffffffff16905090565b606060028054610fc290613423565b80601f0160208091040260200160405190810160405280929190818152602001828054610fee90613423565b801561103b5780601f106110105761010080835404028352916020019161103b565b820191906000526020600020905b81548152906001019060200180831161101e57829003601f168201915b5050505050905090565b6000600954905090565b61106161105a61159e565b8383611b58565b5050565b600080600c600084815260200190815260200160002054149050919050565b61109561108f61159e565b8361165f565b6110d4576040517f08c379a00000000000000000000000000000000000000000000000000000000081526004016110cb906131a3565b60405180910390fd5b6110e084848484611cc5565b50505050565b60606110f182611532565b611130576040517f08c379a0000000000000000000000000000000000000000000000000000000008152600401611127906130e3565b60405180910390fd5b600060076000848152602001908152602001600020805461115090613423565b80601f016020809104026020016040519081016040528092919081815260200182805461117c90613423565b80156111c95780601f1061119e576101008083540402835291602001916111c9565b820191906000526020600020905b8154815290600101906020018083116111ac57829003601f168201915b5050505050905060006111da611d21565b90506000815114156111f0578192505050611233565b60008251111561122557808260405160200161120d929190612e09565b60405160208183030381529060405292505050611233565b61122e84611d38565b925050505b919050565b6112433383836119a4565b611282576040517f08c379a000000000000000000000000000000000000000000000000000000000815260040161127990612f83565b60405180910390fd5b5050565b6000600660008473ffffffffffffffffffffffffffffffffffffffff1673ffffffffffffffffffffffffffffffffffffffff16815260200190815260200160002060008373ffffffffffffffffffffffffffffffffffffffff1673ffffffffffffffffffffffffffffffffffffffff16815260200190815260200160002060009054906101000a900460ff16905092915050565b7f000000000000000000000000000000000000000000000000000000000000000081565b6060600f805461134d90613423565b80601f016020809104026020016040519081016040528092919081815260200182805461137990613423565b80156113c65780601f1061139b576101008083540402835291602001916113c6565b820191906000526020600020905b8154815290600101906020018083116113a957829003601f168201915b5050505050905090565b6113d861159e565b73ffffffffffffffffffffffffffffffffffffffff166113f6610f8a565b73ffffffffffffffffffffffffffffffffffffffff161461144c576040517f08c379a000000000000000000000000000000000000000000000000000000000815260040161144390613143565b60405180910390fd5b600073ffffffffffffffffffffffffffffffffffffffff168173ffffffffffffffffffffffffffffffffffffffff1614156114bc576040517f08c379a00000000000000000000000000000000000000000000000000000000081526004016114b390612f63565b60405180910390fd5b6114c581611a94565b50565b60007f01ffc9a7000000000000000000000000000000000000000000000000000000007bffffffffffffffffffffffffffffffffffffffffffffffffffffffff1916827bffffffffffffffffffffffffffffffffffffffffffffffffffffffff1916149050919050565b60008073ffffffffffffffffffffffffffffffffffffffff166003600084815260200190815260200160002060009054906101000a900473ffffffffffffffffffffffffffffffffffffffff1673ffffffffffffffffffffffffffffffffffffffff1614159050919050565b600033905090565b816005600083815260200190815260200160002060006101000a81548173ffffffffffffffffffffffffffffffffffffffff021916908373ffffffffffffffffffffffffffffffffffffffff160217905550808273ffffffffffffffffffffffffffffffffffffffff1661161983610c0f565b73ffffffffffffffffffffffffffffffffffffffff167f8c5be1e5ebec7d5bd14f71427d1e84f3dd0314c0f7b2291e5b200ac8c7c3b92560405160405180910390a45050565b600061166a82611532565b6116a9576040517f08c379a00000000000000000000000000000000000000000000000000000000081526004016116a090613023565b60405180910390fd5b60006116b483610c0f565b90508073ffffffffffffffffffffffffffffffffffffffff168473ffffffffffffffffffffffffffffffffffffffff16148061172357508373ffffffffffffffffffffffffffffffffffffffff1661170b846107e9565b73ffffffffffffffffffffffffffffffffffffffff16145b8061173457506117338185611286565b5b91505092915050565b8273ffffffffffffffffffffffffffffffffffffffff1661175d82610c0f565b73ffffffffffffffffffffffffffffffffffffffff16146117b3576040517f08c379a00000000000000000000000000000000000000000000000000000000081526004016117aa90612fa3565b60405180910390fd5b600073ffffffffffffffffffffffffffffffffffffffff168273ffffffffffffffffffffffffffffffffffffffff161415611823576040517f08c379a000000000000000000000000000000000000000000000000000000000815260040161181a90612fe3565b60405180910390fd5b61182e838383611ddf565b6118396000826115a6565b6001600460008573ffffffffffffffffffffffffffffffffffffffff1673ffffffffffffffffffffffffffffffffffffffff1681526020019081526020016000206000828254611889919061332f565b925050819055506001600460008473ffffffffffffffffffffffffffffffffffffffff1673ffffffffffffffffffffffffffffffffffffffff16815260200190815260200160002060008282546118e091906132a8565b92505081905550816003600083815260200190815260200160002060006101000a81548173ffffffffffffffffffffffffffffffffffffffff021916908373ffffffffffffffffffffffffffffffffffffffff160217905550808273ffffffffffffffffffffffffffffffffffffffff168473ffffffffffffffffffffffffffffffffffffffff167fddf252ad1be2c89b69c2b068fc378daa952ba7f163c4a11628f55a4df523b3ef60405160405180910390a461199f838383611de4565b505050565b60006119f96119b285611de9565b848480806020026020016040519081016040528093929190818152602001838360200280828437600081840152601f19601f82011690508083019250505050505050611e19565b90509392505050565b611a1c828260405180602001604052806000815250611e4e565b5050565b611a2982611532565b611a68576040517f08c379a0000000000000000000000000000000000000000000000000000000008152600401611a5f906130a3565b60405180910390fd5b80600760008481526020019081526020016000209080519060200190611a8f9291906124b3565b505050565b60008060009054906101000a900473ffffffffffffffffffffffffffffffffffffffff169050816000806101000a81548173ffffffffffffffffffffffffffffffffffffffff021916908373ffffffffffffffffffffffffffffffffffffffff1602179055508173ffffffffffffffffffffffffffffffffffffffff168173ffffffffffffffffffffffffffffffffffffffff167f8be0079c531659141344cd1fd0a4f28419497f9722a3daafe3b4186f6b6457e060405160405180910390a35050565b8173ffffffffffffffffffffffffffffffffffffffff168373ffffffffffffffffffffffffffffffffffffffff161415611bc7576040517f08c379a0000000000000000000000000000000000000000000000000000000008152600401611bbe90613003565b60405180910390fd5b80600660008573ffffffffffffffffffffffffffffffffffffffff1673ffffffffffffffffffffffffffffffffffffffff16815260200190815260200160002060008473ffffffffffffffffffffffffffffffffffffffff1673ffffffffffffffffffffffffffffffffffffffff16815260200190815260200160002060006101000a81548160ff0219169083151502179055508173ffffffffffffffffffffffffffffffffffffffff168373ffffffffffffffffffffffffffffffffffffffff167f17307eab39ab6107e8899845ad3d59bd9653f200f220920489ca2b5937696c3183604051611cb89190612e94565b60405180910390a3505050565b611cd084848461173d565b611cdc84848484611ea9565b611d1b576040517f08c379a0000000000000000000000000000000000000000000000000000000008152600401611d1290612f43565b60405180910390fd5b50505050565b606060405180602001604052806000815250905090565b6060611d4382611532565b611d82576040517f08c379a0000000000000000000000000000000000000000000000000000000008152600401611d7990613163565b60405180910390fd5b6000611d8c611d21565b90506000815111611dac5760405180602001604052806000815250611dd7565b80611db684612040565b604051602001611dc7929190612e09565b6040516020818303038152906040525b915050919050565b505050565b505050565b600081604051602001611dfc9190612dee565b604051602081830303815290604052805190602001209050919050565b6000611e46827f0000000000000000000000000000000000000000000000000000000000000000856121ed565b905092915050565b611e588383612204565b611e656000848484611ea9565b611ea4576040517f08c379a0000000000000000000000000000000000000000000000000000000008152600401611e9b90612f43565b60405180910390fd5b505050565b6000611eca8473ffffffffffffffffffffffffffffffffffffffff166123de565b15612033578373ffffffffffffffffffffffffffffffffffffffff1663150b7a02611ef361159e565b8786866040518563ffffffff1660e01b8152600401611f159493929190612e48565b602060405180830381600087803b158015611f2f57600080fd5b505af1925050508015611f6057506040513d601f19601f82011682018060405250810190611f5d9190612986565b60015b611fe3573d8060008114611f90576040519150601f19603f3d011682016040523d82523d6000602084013e611f95565b606091505b50600081511415611fdb576040517f08c379a0000000000000000000000000000000000000000000000000000000008152600401611fd290612f43565b60405180910390fd5b805181602001fd5b63150b7a0260e01b7bffffffffffffffffffffffffffffffffffffffffffffffffffffffff1916817bffffffffffffffffffffffffffffffffffffffffffffffffffffffff191614915050612038565b600190505b949350505050565b60606000821415612088576040518060400160405280600181526020017f300000000000000000000000000000000000000000000000000000000000000081525090506121e8565b600082905060005b600082146120ba5780806120a390613486565b915050600a826120b391906132fe565b9150612090565b60008167ffffffffffffffff8111156120fc577f4e487b7100000000000000000000000000000000000000000000000000000000600052604160045260246000fd5b6040519080825280601f01601f19166020018201604052801561212e5781602001600182028036833780820191505090505b5090505b600085146121e157600182612147919061332f565b9150600a8561215691906134f3565b603061216291906132a8565b60f81b81838151811061219e577f4e487b7100000000000000000000000000000000000000000000000000000000600052603260045260246000fd5b60200101907effffffffffffffffffffffffffffffffffffffffffffffffffffffffffffff1916908160001a905350600a856121da91906132fe565b9450612132565b8093505050505b919050565b6000826121fa8584612401565b1490509392505050565b600073ffffffffffffffffffffffffffffffffffffffff168273ffffffffffffffffffffffffffffffffffffffff161415612274576040517f08c379a000000000000000000000000000000000000000000000000000000000815260040161226b906130c3565b60405180910390fd5b61227d81611532565b156122bd576040517f08c379a00000000000000000000000000000000000000000000000000000000081526004016122b490612fc3565b60405180910390fd5b6122c960008383611ddf565b6001600460008473ffffffffffffffffffffffffffffffffffffffff1673ffffffffffffffffffffffffffffffffffffffff168152602001908152602001600020600082825461231991906132a8565b92505081905550816003600083815260200190815260200160002060006101000a81548173ffffffffffffffffffffffffffffffffffffffff021916908373ffffffffffffffffffffffffffffffffffffffff160217905550808273ffffffffffffffffffffffffffffffffffffffff16600073ffffffffffffffffffffffffffffffffffffffff167fddf252ad1be2c89b69c2b068fc378daa952ba7f163c4a11628f55a4df523b3ef60405160405180910390a46123da60008383611de4565b5050565b6000808273ffffffffffffffffffffffffffffffffffffffff163b119050919050565b60008082905060005b845181101561249157600085828151811061244e577f4e487b7100000000000000000000000000000000000000000000000000000000600052603260045260246000fd5b6020026020010151905080831161247057612469838261249c565b925061247d565b61247a818461249c565b92505b50808061248990613486565b91505061240a565b508091505092915050565b600082600052816020526040600020905092915050565b8280546124bf90613423565b90600052602060002090601f0160209004810192826124e15760008555612528565b82601f106124fa57805160ff1916838001178555612528565b82800160010185558215612528579182015b8281111561252757825182559160200191906001019061250c565b5b5090506125359190612539565b5090565b5b8082111561255257600081600090555060010161253a565b5090565b600061256961256484613203565b6131de565b90508281526020810184848401111561258157600080fd5b61258c8482856133e1565b509392505050565b60006125a76125a284613234565b6131de565b9050828152602081018484840111156125bf57600080fd5b6125ca8482856133e1565b509392505050565b6000813590506125e181613b6f565b92915050565b60008083601f8401126125f957600080fd5b8235905067ffffffffffffffff81111561261257600080fd5b60208301915083602082028301111561262a57600080fd5b9250929050565b60008135905061264081613b86565b92915050565b60008135905061265581613b9d565b92915050565b60008151905061266a81613b9d565b92915050565b600082601f83011261268157600080fd5b8135612691848260208601612556565b91505092915050565b600082601f8301126126ab57600080fd5b81356126bb848260208601612594565b91505092915050565b6000813590506126d381613bb4565b92915050565b6000602082840312156126eb57600080fd5b60006126f9848285016125d2565b91505092915050565b6000806040838503121561271557600080fd5b6000612723858286016125d2565b9250506020612734858286016125d2565b9150509250929050565b60008060006060848603121561275357600080fd5b6000612761868287016125d2565b9350506020612772868287016125d2565b9250506040612783868287016126c4565b9150509250925092565b600080600080608085870312156127a357600080fd5b60006127b1878288016125d2565b94505060206127c2878288016125d2565b93505060406127d3878288016126c4565b925050606085013567ffffffffffffffff8111156127f057600080fd5b6127fc87828801612670565b91505092959194509250565b60008060008060006080868803121561282057600080fd5b600061282e888289016125d2565b955050602086013567ffffffffffffffff81111561284b57600080fd5b612857888289016125e7565b9450945050604086013567ffffffffffffffff81111561287657600080fd5b6128828882890161269a565b9250506060612893888289016126c4565b9150509295509295909350565b600080604083850312156128b357600080fd5b60006128c1858286016125d2565b92505060206128d285828601612631565b9150509250929050565b600080604083850312156128ef57600080fd5b60006128fd858286016125d2565b925050602061290e858286016126c4565b9150509250929050565b6000806020838503121561292b57600080fd5b600083013567ffffffffffffffff81111561294557600080fd5b612951858286016125e7565b92509250509250929050565b60006020828403121561296f57600080fd5b600061297d84828501612646565b91505092915050565b60006020828403121561299857600080fd5b60006129a68482850161265b565b91505092915050565b6000602082840312156129c157600080fd5b600082013567ffffffffffffffff8111156129db57600080fd5b6129e78482850161269a565b91505092915050565b600060208284031215612a0257600080fd5b6000612a10848285016126c4565b91505092915050565b612a2281613363565b82525050565b612a39612a3482613363565b6134cf565b82525050565b612a4881613375565b82525050565b612a5781613381565b82525050565b6000612a6882613265565b612a72818561327b565b9350612a828185602086016133f0565b612a8b816135e0565b840191505092915050565b6000612aa182613270565b612aab818561328c565b9350612abb8185602086016133f0565b612ac4816135e0565b840191505092915050565b6000612ada82613270565b612ae4818561329d565b9350612af48185602086016133f0565b80840191505092915050565b6000612b0d601a8361328c565b9150612b18826135fe565b602082019050919050565b6000612b3060328361328c565b9150612b3b82613627565b604082019050919050565b6000612b5360268361328c565b9150612b5e82613676565b604082019050919050565b6000612b7660148361328c565b9150612b81826136c5565b602082019050919050565b6000612b9960258361328c565b9150612ba4826136ee565b604082019050919050565b6000612bbc601c8361328c565b9150612bc78261373d565b602082019050919050565b6000612bdf60248361328c565b9150612bea82613766565b604082019050919050565b6000612c0260198361328c565b9150612c0d826137b5565b602082019050919050565b6000612c25602c8361328c565b9150612c30826137de565b604082019050919050565b6000612c4860388361328c565b9150612c538261382d565b604082019050919050565b6000612c6b602a8361328c565b9150612c768261387c565b604082019050919050565b6000612c8e60298361328c565b9150612c99826138cb565b604082019050919050565b6000612cb1602e8361328c565b9150612cbc8261391a565b604082019050919050565b6000612cd460208361328c565b9150612cdf82613969565b602082019050919050565b6000612cf760318361328c565b9150612d0282613992565b604082019050919050565b6000612d1a60118361328c565b9150612d25826139e1565b602082019050919050565b6000612d3d602c8361328c565b9150612d4882613a0a565b604082019050919050565b6000612d6060208361328c565b9150612d6b82613a59565b602082019050919050565b6000612d83602f8361328c565b9150612d8e82613a82565b604082019050919050565b6000612da660218361328c565b9150612db182613ad1565b604082019050919050565b6000612dc960318361328c565b9150612dd482613b20565b604082019050919050565b612de8816133d7565b82525050565b6000612dfa8284612a28565b60148201915081905092915050565b6000612e158285612acf565b9150612e218284612acf565b91508190509392505050565b6000602082019050612e426000830184612a19565b92915050565b6000608082019050612e5d6000830187612a19565b612e6a6020830186612a19565b612e776040830185612ddf565b8181036060830152612e898184612a5d565b905095945050505050565b6000602082019050612ea96000830184612a3f565b92915050565b6000602082019050612ec46000830184612a4e565b92915050565b60006020820190508181036000830152612ee48184612a96565b905092915050565b60006040820190508181036000830152612f068185612a96565b90508181036020830152612f1a8184612a96565b90509392505050565b60006020820190508181036000830152612f3c81612b00565b9050919050565b60006020820190508181036000830152612f5c81612b23565b9050919050565b60006020820190508181036000830152612f7c81612b46565b9050919050565b60006020820190508181036000830152612f9c81612b69565b9050919050565b60006020820190508181036000830152612fbc81612b8c565b9050919050565b60006020820190508181036000830152612fdc81612baf565b9050919050565b60006020820190508181036000830152612ffc81612bd2565b9050919050565b6000602082019050818103600083015261301c81612bf5565b9050919050565b6000602082019050818103600083015261303c81612c18565b9050919050565b6000602082019050818103600083015261305c81612c3b565b9050919050565b6000602082019050818103600083015261307c81612c5e565b9050919050565b6000602082019050818103600083015261309c81612c81565b9050919050565b600060208201905081810360008301526130bc81612ca4565b9050919050565b600060208201905081810360008301526130dc81612cc7565b9050919050565b600060208201905081810360008301526130fc81612cea565b9050919050565b6000602082019050818103600083015261311c81612d0d565b9050919050565b6000602082019050818103600083015261313c81612d30565b9050919050565b6000602082019050818103600083015261315c81612d53565b9050919050565b6000602082019050818103600083015261317c81612d76565b9050919050565b6000602082019050818103600083015261319c81612d99565b9050919050565b600060208201905081810360008301526131bc81612dbc565b9050919050565b60006020820190506131d86000830184612ddf565b92915050565b60006131e86131f9565b90506131f48282613455565b919050565b6000604051905090565b600067ffffffffffffffff82111561321e5761321d6135b1565b5b613227826135e0565b9050602081019050919050565b600067ffffffffffffffff82111561324f5761324e6135b1565b5b613258826135e0565b9050602081019050919050565b600081519050919050565b600081519050919050565b600082825260208201905092915050565b600082825260208201905092915050565b600081905092915050565b60006132b3826133d7565b91506132be836133d7565b9250827fffffffffffffffffffffffffffffffffffffffffffffffffffffffffffffffff038211156132f3576132f2613524565b5b828201905092915050565b6000613309826133d7565b9150613314836133d7565b92508261332457613323613553565b5b828204905092915050565b600061333a826133d7565b9150613345836133d7565b92508282101561335857613357613524565b5b828203905092915050565b600061336e826133b7565b9050919050565b60008115159050919050565b6000819050919050565b60007fffffffff0000000000000000000000000000000000000000000000000000000082169050919050565b600073ffffffffffffffffffffffffffffffffffffffff82169050919050565b6000819050919050565b82818337600083830152505050565b60005b8381101561340e5780820151818401526020810190506133f3565b8381111561341d576000848401525b50505050565b6000600282049050600182168061343b57607f821691505b6020821081141561344f5761344e613582565b5b50919050565b61345e826135e0565b810181811067ffffffffffffffff8211171561347d5761347c6135b1565b5b80604052505050565b6000613491826133d7565b91507fffffffffffffffffffffffffffffffffffffffffffffffffffffffffffffffff8214156134c4576134c3613524565b5b600182019050919050565b60006134da826134e1565b9050919050565b60006134ec826135f1565b9050919050565b60006134fe826133d7565b9150613509836133d7565b92508261351957613518613553565b5b828206905092915050565b7f4e487b7100000000000000000000000000000000000000000000000000000000600052601160045260246000fd5b7f4e487b7100000000000000000000000000000000000000000000000000000000600052601260045260246000fd5b7f4e487b7100000000000000000000000000000000000000000000000000000000600052602260045260246000fd5b7f4e487b7100000000000000000000000000000000000000000000000000000000600052604160045260246000fd5b6000601f19601f8301169050919050565b60008160601b9050919050565b7f5468697320746f6b656e20697320616c72656164792073616c65000000000000600082015250565b7f4552433732313a207472616e7366657220746f206e6f6e20455243373231526560008201527f63656976657220696d706c656d656e7465720000000000000000000000000000602082015250565b7f4f776e61626c653a206e6577206f776e657220697320746865207a65726f206160008201527f6464726573730000000000000000000000000000000000000000000000000000602082015250565b7f4e6f74206f6e207468652077686974656c697374000000000000000000000000600082015250565b7f4552433732313a207472616e736665722066726f6d20696e636f72726563742060008201527f6f776e6572000000000000000000000000000000000000000000000000000000602082015250565b7f4552433732313a20746f6b656e20616c7265616479206d696e74656400000000600082015250565b7f4552433732313a207472616e7366657220746f20746865207a65726f2061646460008201527f7265737300000000000000000000000000000000000000000000000000000000602082015250565b7f4552433732313a20617070726f766520746f2063616c6c657200000000000000600082015250565b7f4552433732313a206f70657261746f7220717565727920666f72206e6f6e657860008201527f697374656e7420746f6b656e0000000000000000000000000000000000000000602082015250565b7f4552433732313a20617070726f76652063616c6c6572206973206e6f74206f7760008201527f6e6572206e6f7220617070726f76656420666f7220616c6c0000000000000000602082015250565b7f4552433732313a2062616c616e636520717565727920666f7220746865207a6560008201527f726f206164647265737300000000000000000000000000000000000000000000602082015250565b7f4552433732313a206f776e657220717565727920666f72206e6f6e657869737460008201527f656e7420746f6b656e0000000000000000000000000000000000000000000000602082015250565b7f45524337323155524953746f726167653a2055524920736574206f66206e6f6e60008201527f6578697374656e7420746f6b656e000000000000000000000000000000000000602082015250565b7f4552433732313a206d696e7420746f20746865207a65726f2061646472657373600082015250565b7f45524337323155524953746f726167653a2055524920717565727920666f722060008201527f6e6f6e6578697374656e7420746f6b656e000000000000000000000000000000602082015250565b7f4e6f7420656e6f75676874206574686572000000000000000000000000000000600082015250565b7f4552433732313a20617070726f76656420717565727920666f72206e6f6e657860008201527f697374656e7420746f6b656e0000000000000000000000000000000000000000602082015250565b7f4f776e61626c653a2063616c6c6572206973206e6f7420746865206f776e6572600082015250565b7f4552433732314d657461646174613a2055524920717565727920666f72206e6f60008201527f6e6578697374656e7420746f6b656e0000000000000000000000000000000000602082015250565b7f4552433732313a20617070726f76616c20746f2063757272656e74206f776e6560008201527f7200000000000000000000000000000000000000000000000000000000000000602082015250565b7f4552433732313a207472616e736665722063616c6c6572206973206e6f74206f60008201527f776e6572206e6f7220617070726f766564000000000000000000000000000000602082015250565b613b7881613363565b8114613b8357600080fd5b50565b613b8f81613375565b8114613b9a57600080fd5b50565b613ba68161338b565b8114613bb157600080fd5b50565b613bbd816133d7565b8114613bc857600080fd5b5056fea2646970667358221220837d2018e4ae04ca0abd47a9c5091998d45caebb97b03847b2e470e419dc175d64736f6c63430008040033546865206f776e6572206f6620636f6e747261637420686173206e6f74207965742061736b65642061207175657374696f6e",
  "linkReferences": {},
  "deployedLinkReferences": {}
}